:0300000002356D59
:0C356D00787FE4F6D8FD7581090235B4C2
:103A0900E6B3A2E789B9E5BE8BE58AA868656C6C5F
:023A19006F003C
:1034DF00900486740DF0A37401F0A3F0E4A3F043FD
:1034EF00BA80538EFD123AA97B017A047986123580
:1034FF00F97F641239F112332EE4900485F09004B1
:10350F0085C37480948150F1123A49901BCAE49399
:10351F00FFC374809FFFE49400C313EF13FF7BFF7F
:10352F007A1B79CAE4900491F0FD1237FF9004855D
:10353F00E0FFC374809FFF90049174FFF0A3741B8E
:10354F00F0A374C1F0E4A3F07BFF7A3A79097D30E0
:0E355F001228E6123750900485E004F080A098
:0739F100E4FEEEC39F50103D
:0D39F80000750820750928D509FDD508FACD
:033A05000E80EB45
:013A0800229B
:0A3AA90043923043913053BACF220C
:093ABD00420000000041008400F9
:0A3AB300900491EDF07F780239A530
:103A1B00900001EFF07B017A0079007D02023AB34E
:10332E007FAE123A1B7F20123A1B7F10123A1B7F80
:10333E00B0123A1B7FC8123A1BE4FF123A1B7F10E1
:10334E00123A1B7F40123A1B7F81123A1B7FDF120B
:10335E003A1B7FA1123A1B7FA6123A1B7FA8123A84
:10336E001B7F3F123A1B7FA4123A1B7FD3123A1BCC
:10337E00E4FF123A1B7FD5123A1B7FF0123A1B7FE5
:10338E00D9123A1B7F22123A1B7FDA123A1B7F1296
:10339E00123A1B7FDB123A1B7F20123A1B7F8D12D3
:1033AE003A1B7F14123A1B123A491237507FAF0262
:0233BE003A1BB8
:0F3A2B007F8D123A1B7F14123A1B7FAF023A1B9A
:0F3A3A007F8D123A1B7F10123A1B7FAE023A1B90
:1039BF0090053AEFF070057FA6123A1B90053AE09A
:0939CF00B401057FA7123A1B2286
:0F3A49007E047F007D007B017A00798502225583
:103750009000027440F0E490048CF090048CE0FF40
:10376000C394085043EF24B0FF123A1BE4FF123A0F
:103770001B7F10123A1B90048CE075F080A4248506
:10378000F9740035F0FA7B0178037C007D017E003E
:103790007F80121F5C7B017A0079027D81123AB32F
:0837A00090048CE004F080B3FA
:0137A80022FE
:1030C000E02EFD9004D6E0FB12312C9004D7A3E053
:1030D000FF9004D2E0C39FFF9004D9A3E0FE9004C8
:1030E000D3E02EFD9004D6E0FB12312C9004D7A340
:1030F000E0FF9004D2E02FFF9004D9A3E0FE9004FB
:10310000D3E0C39EFD9004D6E0FB12312C9004D78F
:10311000A3E0FF9004D2E0C39FFF9004D9A3E0FE98
:0C3120009004D3E0C39004D69EFDE0FBB9
:10312C00EFC394805077EDC394405071EB7035ED44
:10313C00131313541F75F080A42485F582E5F03425
:10314C0000F583E5822FF582E43583F583C083C0D7
:10315C0082E0FFED5407FEF87401088002C333D8F7
:10316C00FC4F8034ED131313541F75F080A4248589
:10317C00F582E5F03400F583E5822FF582E43583A2
:10318C00F583C083C082E0FFED5407FEF87401089C
:0E319C008002C333D8FCF45FD082D083F022CF
:0531AA009004B9EFF0F4
:1031AF00C39408400302326FEDC394804003023290
:1031BF006F9004BEE06003EBF4FB9004BDE004FFEE
:1031CF00F874FF088002C333D8FC4BFF9004BCE0B7
:1031DF00FEC374089EFEF874FF088002C313D8FC68
:1031EF004F900083F09004B9E075F080A42485F52A
:1031FF0082E5F03400F583E5822DF582E43583F521
:10320F0083C083C082E0FF900083E0FEEF5ED08238
:10321F00D083F09004BDE004FFF874FF088002C370
:10322F0033D8FCF45BFF9004BCE0FEC374089EFE31
:10323F00F874FF088002C313D8FCF45FFF9000837B
:10324F00F09004B9E075F080A42485F582E5F034A0
:10325F0000F583E5822DF582E43583F583E04FF0A9
:01326F00223C
:1038D700EFC39408502AEDC394805024900539E033
:1038E7006003EBF4FB75F080EFA42485F582E5F027
:1038F7003400F583E5822DF582E43583F583EBF01B
:01390700229D
:073270009004B3EFF0A90385
:10327700ED131313541F9004B8F0ED5407FC90049A
:10328700B6E0FFEC2FFFE433FED3EF9408EE648043
:10329700948040619004B8E0FF9004B3E0FDA80477
:1032A700E9088002C333D8FCFB9004BCECF0A3749C
:1032B70007F09004B7E09004BEF01231AA9004B86A
:1032C700E004FFC0079004B3E0FDC374089CFEF858
:1032D700E9088002C313D8FCFBE49004BCF0900417
:1032E700B6E02C24F79004BDF09004B7E09004BE3C
:1032F700F0D007802E9004B3E0FDAE01A804EE08DD
:103307008002C333D8FCFB9004BCECF09004B6E019
:103317002C149004BDF09004B7E09004BEF0900424
:06332700B8E0FF1231AA1C
:01332D00227D
:0436E800A907AC037F
:1036EC00ED131313541FFF9004B7F0ED5407FAAD0C
:1036FC0001F8EC088002C333D8FCFB9004BCEAF060
:10370C00A37407F09004B6E09004BEF01231AAEA5C
:10371C0060319004B7E004FFC007AE01AD06C3747E
:10372C00089AFEF8EC088002C313D8FCFBE4900462
:10373C00BCF0EA14A3F09004B6E09004BEF0D007FD
:03374C001231AA8D
:01374F002257
:102E7A009004A5EFF0A3EDF0A3EBF0A3EAF0A3E929
:012E8A00F057
:102E8B009004ABE0FF131313541F9004ADF0EF54F9
:102E9B0007A3F0E4A3F09004AAE0FF9004AFE0C313
:102EAB009F506FE4A3F09004ADE0FF9004B0E0FE00
:102EBB00C39F50569004AAE0FFEE8FF0A4FF90043E
:102ECB00AFE07C002FFFEC35F0FE9004A7E0FBA3F6
:102EDB00E0FAA3E0F98F828E83121F9BFB9004AF65
:102EEB00E0FF9004A5E02FFF9004B0E075F008A47C
:102EFB00FE9004A6E02EFD9004ACE09004B6F01218
:102F0B0036E89004B0E004F0809C9004AFE004F04D
:102F1B0080849004AEE07003022FA79004ADE0FF15
:102F2B009004AAE08FF0A4FF9004B1E5F0F0A3EFBA
:102F3B00F0E49004AFF09004AAE0FF9004AFE0C37C
:102F4B009F5059E0FE9004A5E02EFFC0079004AD02
:102F5B00E075F008A4FF9004A6E02FFDEEFF7E00C5
:102F6B009004B1E0FAA3E02FFFEE3AFE9004A7E045
:102F7B00FBA3E0FAA3E0F98F828E83121F9BFB90D9
:102F8B0004AEE09004B6F09004ACE09004B7F0D03F
:0C2F9B00071232709004AFE004F0809A3E
:012FA7002207
:10260300FF9004F5E0C39FFFE49400FE121FDAE994
:10261300FD9004F2E0C39DFDE49400FC121FEC90D6
:1026230004EDE02FFB9004F5E0FD9004C2F090046C
:08263300F3E09004C3F0AF02D4
:0F263B009004C0EDF09004BFEFF09004C1EBF0FD
:10264A006F703FA3E0FF9004C0E0FED39F400F905D
:10265A000084EEF09004C0EFF09004C2EEF0900413
:10266A00C0E0FC9004C2E0FFECD39F40030228E5DF
:10267A009004BFE0FFAD049004C3E0FB12312C0CC0
:10268A0080E19004C2E0FF9004C0E0F96F703FA3BC
:10269A00E0FF9004BFE0FED39F400F900084EEF06D
:1026AA009004BFEFF09004C1EEF09004BFE0FC90FC
:1026BA0004C1E0FFECD39F40030228E5AF04900475
:1026CA00C0E0FD9004C3E0FB12312C0C80E19004C1
:1026DA00BFE0FF9004C1E0C39FFFE494009004C4EC
:1026EA00F0FAA3EFF0FBE9FF9004C2E0C39FFEE417
:1026FA0094009004C6F0A3CEF0D3EB9400EA648071
:10270A0094807E0040047F0180027F00EF25E0FF75
:10271A00EE33FEEF24FFFFEE34FF9004C8F0A3EF80
:10272A00F0D39004C7E094009004C6E064809480DB
:10273A007E0040047F0180027F00EF25E0FFEE3338
:10274A00FEEF24FFFFEE34FF9004CAF0A3EFF090EF
:10275A0004BFE0FF9004CCE4F0A3EFF09004C0E0E3
:10276A00FF9004CEE4F0A3EFF0E4A3F0A3F090040A
:10277A00C4E0FEA3E0FF123A9D9004C4EEF0A3EF7A
:10278A00F0A3E0FEA3E0FF123A9D9004C6EEF0A388
:10279A00EFF0D39004C5E09FEE6480F89004C4E0A3
:1027AA00648098500302284E9004BFE0FF9004CC46
:1027BA00E4F0A3EFF09004C1E0FF9004CCE0FCA3A6
:1027CA00E0FD6F7001EC70030228E5AF05A3A3E0FA
:1027DA00FD9004C3E0FB12312C9004C6E0FEA3E096
:1027EA00FF9004D1E02FF09004D0E03EF0E0FCA38B
:1027FA00E0FD25E0FFEC33FE9004C4E0FAA3E0FB21
:10280A00D39FEE6480F8EA64809850219004CAE06D
:10281A00FEA3E0FF9004CFE02FF09004CEE03EF05C
:10282A00C3ED9BFEEC9A9004D0F0A3CEF09004C8BE
:10283A00E0FEA3E0FF9004CDE02FF09004CCE03E50
:10284A00F00227BF9004C0E0FF9004CEE4F0A3EFAB
:10285A00F09004C2E0FF9004CEE0FCA3E0FD6F70AC
:10286A0001EC60779004CCA3E0FF9004C3E0FB1274
:10287A00312C9004C4E0FEA3E0FF9004D1E02FF0D5
:10288A009004D0E03EF0E0FCA3E0FD25E0FFEC334D
:10289A00FE9004C6E0FAA3E0FBD39FEE6480F8EA58
:1028AA00648098501FA3E0FEA3E0FF9004CDE02FC0
:1028BA00F09004CCE03EF0C3ED9BFEEC9A9004D07D
:1028CA00F0A3CEF09004CAE0FEA3E0FF9004CFE0AC
:0B28DA002FF09004CEE03EF002285BDF
:0128E50022D0
:1033C00090052CEFF0A3EDF0A3EBF090052CE0FFBF
:1033D000A3E0FDEF2BFB9004C2EDF0900530E090F0
:1033E00004C3F012263B90052CE0FF90052FE0FE71
:1033F00090052DE02EFDA3E0FEEF2EFB9004C2ED24
:10340000F0900530E09004C3F012263B90052CE0CC
:10341000FBFFA3E0FD90052FE0FEED2E9004C2F02F
:10342000900530E09004C3F012263B90052EE0FF9B
:1034300090052CE02FFBFFA3E0FD90052FE0FEEDB3
:103440002E9004C2F0900530E09004C3F002263BB9
:0B384E0090051AEFF0A3EDF0A3EBF0E3
:10385900E490051FF090051DE0FF90051FE0FEC3F1
:103869009F502790051AE0FFA3E02EFDA3E0FEEF8D
:103879002EFB9004C2EDF090051EE09004C3F012F7
:0A388900263B90051FE004F080CB01
:013893002212
:1037A900900513EFF0A3EDF0A3EBF0A3E09004C2B2
:1037B900F0900519E09004C3F012263B900515E03E
:1037C900FFA3E0FDA3E0FBA3E09004C2F09005197C
:1037D900E09004C3F012263B900517E0FFA3E0FD3B
:1037E900900513E0FBA3E09004C2F0900519E09066
:0637F90004C3F002263BB0
:0F2FA8009004EDEFF09004EFEBF09004EEEDF0FD
:102FB700E49004F4F0A3F0A3F09004F0E0FEEDD366
:102FC7009E4007AF069004EE80089004EEE0FF9065
:102FD70004F0E09004F4F09004F5EFF09004F4E0CE
:102FE700FFA3E0FED39F506C9004F2E0FFEE9F50EA
:102FF700519004EDE0FF9004EFE0C39FFDE49400DF
:10300700FC9004EEE0F9FF9004F5E0C39FFFE49421
:1030170000FE121FDAE9FD9004F0E0C39DFDE49481
:1030270000FC121FEC9004EDE0FE2FFAEEFF900477
:10303700F1E0C39FFDE49400FC9004EEE012260348
:1030470080099004F5E014A3F080099004F5E004EA
:10305700F0022FE39004F4E0FFA3E0FED39F505863
:103067009004EFE0FD9004F1E0C39DFDE49400FCC3
:103077009004F0E0F9FBEEC39BFFE49400FE121FFF
:10308700DAE9FD9004F2E0C39DFDE49400FC121F11
:10309700EC9004EFE02FFA9004EDE0FF9004F1E0EC
:1030A700C39FFDE49400FC9004F6E0F91226039018
:0830B70004F5E004F002305BB7
:0130BF0022EE
:042CD200AC05A9079D
:102CD600E49004FBF0A3F0EBFF7E00A3EEF0A3EF7D
:102CE600F025E0FFEE33FEC374039F900500F0E489
:102CF6009E9004FFF09004FDE0FEA3E0FF9004FB2D
:102D0600E0FAA3E0FBD39FEE6480F8EA6480984083
:102D160003022E79C3E99FFFC3EC9BFD9004FAE002
:102D2600FB12312C9004FDA3E029FF9004FBA3E0E5
:102D3600FEC3EC9004FA1231289004FBA3E0FFC313
:102D4600E99FFFA3A3E02CFD9004FAE0FB12312CCF
:102D56009004FDA3E0FFC3E99FFF9004FBA3E0FE00
:102D6600C3EC9EFD9004FAE0FB12312C9004FBA309
:102D7600E0FFC3E99FFFA3A3E0FEC3EC9EFD900422
:102D8600FAE0FB12312C9004FDA3E029FF9004FB2E
:102D9600A3E02CFD9004FAE0FB12312C9004FBA377
:102DA600E029FFA3A3E0FEC3EC9EFD9004FAE0FB3E
:102DB60012312C9004FBA3E029FFA3A3E02CFD9085
:102DC60004FAE0FB12312C9004FDA3E0FFC3E99F57
:102DD600FF9004FBA3E02CFD9004FAE0FB12312CDB
:102DE6009004FCE004F070069004FBE004F0C3904D
:102DF60004FFE06480948050249004FBE0FEA3E08E
:102E06007802C333CE33CED8F92406FFE43EFE90D3
:102E16000500E02FF09004FFE03EF0803F9004FDB7
:102E2600E0FEA3E0FFC39004FCE09FFF9004FBE0FC
:102E36009EFEEF7802C333CE33CED8F9240AFFE4E0
:102E46003EFE900500E02FF09004FFE03EF0900477
:102E5600FEE024FFF09004FDE034FFF09004FBA3B5
:102E6600E029FFA3A3E02CFD9004FAE0FB12312C2D
:032E7600022CFB30
:012E79002236
:042B2400AC05A9074C
:102B2800E49004E5F0A3F0EBFF7E00A3EEF0A3EF42
:102B3800F025E0FFEE33FEC374039F9004EAF0E44F
:102B48009E9004E9F09004E7E0FEA3E0FFD3900430
:102B5800E6E09FEE6480F89004E5E0648098400326
:102B6800022CD1E9FF9004E7E0FAA3E0FBC3EF9B56
:102B7800FEE49A9004EBF0A3CEF0E9FF9004E8E0BD
:102B88002FFF9004E7E03400FE9004EBE0FAA3E0A6
:102B9800FBD39FEE6480F8EA6480985039AF0390C5
:102BA80004E5A3E02CFD9004E4E0FB12312C900432
:102BB800EBA3E0FF9004E5A3E0FEC3EC9EFD9004C8
:102BC800E4E0FB12312C9004ECE004F070AC9004CB
:102BD800EBE004F080A4E9FF9004E5E0FAA3E0FB51
:102BE800C3EF9BFEE49A9004EBF0A3CEF0E9FF90CC
:102BF80004E6E02FFF9004E5E03400FE9004EBE0EB
:102C0800FAA3E0FBD39FEE6480F8EA648098503919
:102C1800AF039004E7A3E02CFD9004E4E0FB12313D
:102C28002C9004EBA3E0FF9004E7A3E0FEC3EC9E26
:102C3800FD9004E4E0FB12312C9004ECE004F07009
:102C4800AC9004EBE004F080A49004E6E004F0709B
:102C5800069004E5E004F0C39004E9E06480948001
:102C680050259004E5E0FEA3E07802C333CE33CECE
:102C7800D8F92406FFE43EFE9004EAE02FF0900421
:102C8800E9E03EF0022B4D9004E7E0FEA3E0FFC32D
:102C98009004E6E09FFF9004E5E09EFEEF7802C313
:102CA80033CE33CED8F9240AFFE43EFE9004EAE09E
:102CB8002FF09004E9E03EF09004E8E024FFF09063
:092CC80004E7E034FFF0022B4D9B
:012CD10022E0
:0822A8009004D2EFF0A3EDF069
:1022B000E49004D7F0A3F09004D5E0FF9004D9E4B3
:1022C000F0A3EFF0EBF5F0A4FFA3E5F0F0A3EFF03F
:1022D0009004D5E0FCF5F0A4FF9004DDE5F0F0A358
:1022E000EFF0E4121DD7A804A905AA06AB07E4FF86
:1022F000FE7D807C3E121BD2C004C005C006C00714
:102300009004DBE0FCA3E0FDEC121DD2D003D00270
:10231000D001D000121CC7C004C005C006C0079081
:1023200004DDE0FCA3E0FDEC121DD2D003D002D00E
:1023300001D000121BD6121E0B9004DFEEF0A3EFAB
:10234000F09004D7E0FCA3E0FD9004DDE0FEA3E004
:10235000FF121FDAAA06AB079004D9E0FCA3E0FD48
:10236000A3E0FEA3E0FF121FDAD3EF9BEA6480F83C
:10237000EE648098500302244D9004D7A3E0FF90B0
:1023800004D2E02FFF9004D9A3E0FE9004D31230D2
:10239000C09004DFE0FAA3E0FBC3EA6480948050BD
:1023A0003C9004D8E025E0FF9004D7E033FEEF2412
:1023B00003FFE43EFE9004DDE0FCA3E0FD121FDA23
:1023C0009004E0E02FF09004DFE03EF09004D8E0CD
:1023D00004F070069004D7E004F00223419004D882
:1023E000E025E0FF9004D7E033FEEF2403FFE43E56
:1023F000FE9004DDE0FCA3E0FD121FDAEB2FFBEA08
:102400003EFA9004DAE025E0FF9004D9E033FEC301
:1024100074029FFFE49EFE9004DBE0FCA3E0FD124B
:102420001FDAEF2BFFEE3A9004DFF0A3EFF09004F9
:10243000D8E004F070069004D7E004F09004DAE0ED
:1024400024FFF09004D9E034FFF00223419004D738
:10245000E0FCA3E0FDEC121DD2E4FBFAF9783F1298
:102460001BD6C004C005C006C0079004DDE0FCA375
:10247000E0FDEC121DD2D003D002D001D000121C1E
:10248000C7C004C005C006C0079004D7E0FCA3E0A5
:10249000FDEC121DD2E4FBFAF9783F121BD6D003F3
:1024A000D002D001D000121CC7C004C005C006C0B5
:1024B000079004DAE024FFFB9004D9E034FFFA909F
:1024C00004DBE0FCA3E0FDAF03AE02121FDAAC06B2
:1024D000AD07AF03AE02121FDAAC06AD07EC121D5A
:1024E000D2D003D002D001D000121BD6C004C00548
:1024F000C006C0079004DDE0FCA3E0FD9004DBE033
:10250000FEA3E0FF121FDAAC06AD07EC121DD2A845
:1025100004A905AA06AB07D007D006D005D004123F
:102520001BD2121E0B9004DFEEF0A3EFF09004D943
:10253000E0FCA3E0FDD39400EC648094805003029F
:1025400026029004D7A3E0FF9004D2E02FFFAE054F
:10255000A31230C09004DFE0FAA3E0FBC3EA64807A
:10256000948050619004D8E025E0FF9004D7E033D8
:10257000FEEF2402FFE43EFE9004DDE0FCA3E0FD5C
:10258000121FDAEB2FFBEA3EFA9004DAE025E0FFB7
:102590009004D9E033FEC374039FFFE49EFE9004D1
:1025A000DBE0FCA3E0FD121FDAEF2BFFEE3A900414
:1025B000DFF0A3EFF09004D8E004F070349004D77B
:1025C000E004F0802C9004DAE025E0FF9004D9E0EC
:1025D00033FEC374039FFFE49EFE9004DBE0FCA384
:1025E000E0FD121FDA9004E0E02FF09004DFE03EFF
:1025F000F09004DAE024FFF09004D9E034FFF00218
:02260000252D86
:0126020022B5
:1037FF0090048EEBF0A3EAF0A3E9F090048EE0FBC7
:10380F00A3E0FAA3E0F990000212207BC003C002EC
:10381F00C00190048EE0FBA3E0FAA3E0F9121F822F
:10382F009004AAF0900001121F9B9004ABF090043B
:0F383F0091E09004ACF0D001D002D003022E7AB9
:1034500090049EEFF0A3EDF0A3EBF0A3E0FBA3E05C
:10346000FAA3E0F9900001121F9BFD121F822407AE
:10347000FFE433FEEF7803CEC313CE13D8F98DF0FB
:10348000A4FFAEF09004A0E0FD3395E0FCED24E055
:10349000FDEC34FFFC121FDA90000212207BE92FB2
:1034A000F9EA3EFAC003C002C00190049EE0FFA307
:1034B000E0FD9004A1E0FBA3E0FAA3E0F990000195
:1034C000121F9B9004AAF0121F829004ABF090048C
:0F34D000A4E09004ACF0D001D002D003022E7A19
:0E367500900502EDF0A3EBF0A3EAF0A3E9F05C
:1036830090050AEFF0900503E0FBA3E0FAA3E0F94D
:10369300121F82FB604E90050AE0FF900502E0FDD9
:1036A300900506E0F9A3E0FAA3E09004A1C9F0A312
:1036B300EAF0A3E9F0900509E09004A4F012345075
:1036C300900506E0FBA3E0FAA3E0F9900001121FC6
:1036D3009BFF90050AE02FF0900504E475F00112BA
:0436E300204180A161
:0136E70022C0
:10393800121F82FE20E7037F0122EE54E0FFBFC082
:10394800037F0222121F82FE54F0FFBFE0037F03B1
:0E39580022EE54F8FFBFF0037F04227F00220E
:1028E60090048CEFF0A3EDF0A3EBF0A3EAF0A3E9DC
:0128F600F0F1
:1028F700E4900495F0A3F0900491E0FBA3E0FAA321
:10290700E0F9900001121F9BFD121F822407FFE4CC
:1029170033FEEF7803CEC313CE13D8F98DF0A4247A
:1029270004900498F090048EE0FBA3E0FAA3E0F98A
:10293700900495E0FEA3E0FFF5828E83121F9B7043
:1029470003022B23E4900499F090048EA3A3E02FB5
:10295700F9EA3EFA12393890049AEFF07003022B25
:1029670023E4900497F0900491E0FBA3E0FAA3E03E
:10297700F9900005121F9BFF900497E0FEC39F404C
:1029870003022A6990000212207B900498E0FFEE70
:102997008FF0A429F9EA35F0FA90049BEBF0A3EA4B
:1029A700F0A3E9F090049AE0FF7E0090048EE0FB2C
:1029B700A3E0FAA3E0F9900495E0FCA3E0FDE92D7C
:1029C700F9EA3CA801FCAD0390049BE0FBA3E0FA05
:1029D700A3E0F9122231EF6003022A6090048CE031
:1029E700FFA3E0FD90049BE0FBA3E0FAA3E024042F
:1029F700F9E43AFAC003C002C001900491E0FBA3D6
:102A0700E0FAA3E0F9900001121F9B9004AAF012CC
:102A17001F829004ABF0900494E09004ACF0D001D6
:102A2700D002D003122E7A900491E0FBA3E0FAA320
:102A3700E0F9900001121F9BFF90048CE02FF090AB
:102A4700049AE0FF900496E02FF0900495E034009C
:102A5700F09004997401F08009900497E004F00263
:102A6700296D900499E0600302292CA3E06401908A
:102A7700048C7047E0FFA3E0FDA3E0FBA3E0FAA30B
:102A8700E0F9900495E0F8A3E0F5828883121F9B94
:102A9700FBC003900491E0FBA3E0FAA3E0F99000E8
:102AA7000612207B9004A1EBF0A3EAF0A3E9F090D3
:102AB7000494E09004A4F0D003802BE0FFA3E0FD92
:102AC700900491E0FBA3E0FAA3E0F990000612203E
:102AD7007B9004A1EBF0A3EAF0A3E9F0900494E063
:102AE7009004A4F07B20123450900491E0FBA3E003
:102AF700FAA3E0F990000612207B900001121F9BB9
:102B0700FF90048CE02FF090049AE0FF900496E089
:0C2B17002FF0900495E03400F002292C0F
:012B2300228F
:1035F900900002121F9B6401702A90FE80E04440F3
:10360900F090FE82E4F0121F82543FFF90FE80E0AA
:1036190054C04FF0900003121F9B90FE88B4010222
:103629008031802990FE80E054BFF090FE84E4F060
:10363900900004121F9B25E0FF90FE85E054014F86
:10364900F0900005121F9B90FE85B40106E054FE20
:10365900F08004E04401F0900001121F9B90FE806D
:0C3669007005E0547FF022E04480F02265
:083AD90090FE82E05480FF2200
:0C3A910090FE82E030E6F9E054BFF02225
:093AC70090FE817401F0023A91B5
:0B39D800EBF0A3EAF0A3E9F0123AC7FD
:0E39E30090FE86EFF090FE817402F0023A91A1
:10398800E0FBA3E475F001122057A9F0FA121F8298
:04399800FF1239E3FE
:09399C0090FE817403F0023A91DF
:0F3A580090FE817404F0123A9190FE87E0FF22F5
:0E3A760090FE82E4F090FE817405F0023A9119
:0F3A670090FE827401F090FE817405F0023A9196
:093AD00090FE817406F0023A91A7
:0D3A840090FE86EDF090FE81EFF0023A9189
:103966009005221239D812399CAF051239E3123963
:103976009C900522123988900525E014F070F20219
:023986003AD035
:1039A50090048E1239D812399C90048E1239889061
:0A39B5000491E014F070F2023AD021
:10389400AE07123AC71239E312399CAF051239E365
:1038A40012399C123AC7EE4401123998123A58EF71
:1038B400121FC8740129F9E43AFA90052BE0640157
:1038C4006003123A7690052BE014F070DF123A6729
:0338D400023AD0E5
:10390800123AC7EF4401123998123A58EF121FC8F9
:10391800740129F9E43AFA900535E064016003126C
:103928003A76900535E014F070DF123A67023AD023
:100003000000000000000000002F000000000700B7
:10001300070000147F147F1400242A7F2A12006231
:1000230064081323003649552250000005030000DD
:1000330000001C224100000041221C000014083E65
:1000430008140008083E0808000000A0600000082B
:10005300080808080000606000000020100804027F
:10006300003E5149453E0000427F4000004261513D
:100073004946002141454B31001814127F100027D7
:1000830045454539003C4A4949300001710905039A
:1000930000364949493600064949291E00003636CB
:1000A300000000005636000000081422410000142E
:1000B300141414140000412214080002015109060B
:1000C30000324959513E007C1211127C007F49498C
:1000D3004936003E41414122007F4141221C007FBD
:1000E30049494941007F09090901003E4149497ACB
:1000F300007F0808087F0000417F41000020404145
:100103003F01007F08142241007F40404040007FB0
:10011300020C027F007F0408107F003E4141413EF4
:10012300007F09090906003E4151215E007F09193C
:1001330029460046494949310001017F0101003F39
:100143004040403F001F2040201F003F4038403FB9
:10015300006314081463000708700807006151491D
:10016300454300007F41410000552A552A550000B0
:1001730041417F000004020102040040404040402E
:10018300000001020400002054545478007F4844C6
:10019300443800384444442000384444487F0038FD
:1001A3005454541800087E0901020018A4A4A47C26
:1001B300007F080404780000447D400000408084F0
:1001C3007D00007F102844000000417F4000007C38
:1001D30004180478007C0804047800384444443844
:1001E30000FC242424180018242418FC007C080490
:1001F300040800485454542000043F444020003C69
:100203004040207C001C2040201C003C4030403CEF
:10021300004428102844001CA0A0A07C004464547F
:100223004C441414141414140000000000000000C3
:10023300000000000000FC000000000002000000BD
:10024300000C020C020000000000000090D0BCD0A3
:10025300BC900003000300001824FE448C0003023A
:10026300070201001824D8B04C80000300010201EA
:10027300C038E438E000010202010202080600006F
:100283000000000000000000000000F8040200006D
:1002930000010204000204F800000004020100004F
:1002A3009060F86090000000010000002020FC2016
:1002B300200000000100000000000000000008060C
:1002C300000000002020202020000000000000008B
:1002D3000000000000000002000000000080601C1D
:1002E3000200040300000000F8040404F800010203
:1002F300020201000008FC000000000203020000EB
:10030300188444241800030202020200080424246F
:10031300D80001020202010040B088FC8000000006
:10032300000302003C242424C40001020202010051
:10033300F824242CC0000102020201000C04E41C76
:100343000400000003000000D8242424D800010284
:100353000202010038444444F80000030202010091
:100363000000100000000000020000000000200058
:100373000000000006000000002050880402000076
:100383000000010290909090900000000000000097
:100393000002048850200002010000001804C42455
:1003A3001800000002000000F804E494F8000102C1
:1003B3000202020000E09CF080000203000003023E
:1003C30004FC2424D800020302020100F8040404FC
:1003D3000C0001020202010004FC0404F800020301
:1003E3000202010004FC24740C0002030202030055
:1003F30004FC24740C00020302000000F00804440F
:10040300CC4000010202010004FC2020FC04020392
:10041300000003020404FC040400020203020200BD
:10042300000404FC040406040403000004FC24D0B8
:100433000C0402030200030204FC04000000020394
:1004430002020203FC3CC03CFC0003000300030067
:1004530004FC30C4FC04020302000300F804040497
:10046300F80001020202010004FC24241800020324
:1004730002000000F8848404F8000102020705006A
:1004830004FC246498000203020003021824244499
:100493008C000302020201000C04FC040C000002A5
:1004A3000302000004FC0000FC040001020201003E
:1004B300047C80E01C040000030000001CE03CE01E
:1004C3001C00000300030000049C609C0400020362
:1004D30000030200041CE01C0400000203020000ED
:1004E3000C84641C04000203020203000000FE02E9
:1004F3000200000007040400000E30C000000000EA
:1005030000010200000202FE0000000404070000D4
:1005130000040204000000000000000000000000CE
:100523000000080808080808000002000000000096
:10053300000000000040A0A0C0000001020203026E
:1005430004FC2020C00000030202010000C02020A0
:10055300600000010202020000C02024FC00000130
:100563000202030200C0A0A0C000000102020200B8
:100573000020F82424040002030202000040A0A08B
:10058300602000070A0A0A0404FC2020C0000203BA
:10059300020003020020E400000000020302000046
:1005A300000020E4000008080807000004FC80E0C5
:1005B30020200203020003020404FC0000000202E4
:1005C30003020200E020E020C00003000300030058
:1005D30020E02020C00002030200030200C020200C
:1005E300C00000010202010020E02020C000080F2B
:1005F3000A02010000C02020E0000001020A0F08E7
:1006030020E0402020000203020000000060A0A0C0
:1006130020000002020203000020F8200000000076
:100623000102020020E00020E000000102020302B8
:1006330020E0208060200000030100006080E08053
:1006430060000003000300002060806020000203BC
:100653000003020020E0208060200808070100005A
:100663000020A0602000000203020200000020DE40
:100673000200000000070400000000FF000000006B
:10068300000F00000002DE2000000004070000004D
:100693000201020404020000000000000000000048
:1006A300000000000000000000000000000000F84F
:1006B30000000000000000333000000000100C06B2
:1006C300100C0600000000000000000040C078404D
:1006D300C0784000043F04043F040400007088FC19
:1006E30008300000001820FF211E0000F008F00071
:1006F300E018000000211C031E211E0000F00888E2
:10070300700000001E2123241927211010160E004B
:10071300000000000000000000000000000000E0F6
:10072300180402000000000718204000000204180B
:10073300E00000000040201807000000404080F067
:10074300804040000202010F01020200000000F09D
:10075300000000000101011F010101000000000071
:100763000000000080B070000000000000000000E6
:10077300000000000001010101010101000000006F
:100783000000000000303000000000000000000006
:1007930080601804006018060100000000E01008E3
:1007A3000810E000000F102020100F00001010F8B8
:1007B300000000000020203F2020000000700808F7
:1007C3000888700000302824222130000030088877
:1007D300884830000018202020110E000000C0209F
:1007E30010F8000000070424243F240000F80888C0
:1007F300880808000019212020110E0000E010884D
:1008030088180000000F112020110E00003808087E
:10081300C83808000000003F00000000007088088E
:1008230008887000001C222121221C0000E010080F
:100833000810E0000000312222110F00000000C068
:10084300C000000000000030300000000000008005
:1008530000000000000080600000000000008040F5
:10086300201008000001020408102000404040400E
:100873004040400004040404040404000008102061
:1008830040800000002010080402010000704808A6
:100893000808F0000000003036010000C030C8280E
:1008A300E810E0000718272423140B000000C038C9
:1008B300E0000000203C23020227382008F8888843
:1008C30088700000203F202020110E00C03008084F
:1008D30008083800071820202010080008F8080826
:1008E3000810E000203F202020100F0008F888881F
:1008F300E8081000203F20202320180008F88888EB
:10090300E8081000203F200003000000C030080862
:100913000838000007182020221E020008F80800EB
:100923000008F808203F210101213F20000808F8B2
:10093300080800000020203F2020000000000808D5
:10094300F8080800C08080807F00000008F888C095
:1009530028180800203F20012638200008F8080046
:1009630000000000203F20202020300008F8F8007D
:10097300F8F80800203F003F003F200008F830C08F
:100983000008F808203F200007183F00E01008087F
:100993000810E0000F10202020100F0008F80808AE
:1009A3000808F000203F210101010000E0100808C1
:1009B3000810E0000F18242438504F0008F88888E6
:1009C30088887000203F2000030C302000708808C6
:1009D300080838000038202121221C00180808F8D4
:1009E300080818000000203F2000000008F8080055
:1009F3000008F808001F202020201F000878880026
:100A030000C83808000007380E010000F80800F895
:100A13000008F800033C0700073C0300081868803F
:100A23008068180820302C03032C30200838C800B5
:100A3300C83808000000203F200000001008080804
:100A4300C83808002038262120201800000000FEA6
:100A5300020202000000007F40404000000C30C052
:100A630000000000000000010638C000000202027E
:100A7300FE000000004040407F0000000000040230
:100A8300020204000000000000000000000000005B
:100A9300000000008080808080808080000202044B
:100AA3000000000000000000000000000000808043
:100AB300808000000019242222223F2008F80080B1
:100AC30080000000003F112020110E000000008074
:100AD30080800000000E1120202011000000008003
:100AE3008088F800000E112020103F200000808035
:100AF30080800000001F222222221300008080F049
:100B0300888888180020203F202000000000808073
:100B130080808000006B94949493600008F80080B8
:100B230080800000203F210000203F200080989813
:100B3300000000000020203F202000000000008073
:100B43009898000000C08080807F000008F80000B3
:100B530080808000203F24022D302000000808F808
:100B6300000000000020203F2020000080808080C3
:100B730080808000203F20003F20003F8080008055
:100B830080800000203F210000203F200000808063
:100B930080800000001F202020201F008080008014
:100BA3008000000080FFA12020110E0000000080C3
:100BB30080808000000E112020A0FF8080808000B4
:100BC3008080800020203F212000010000008080E1
:100BD300808080000033242424241900008080E0D6
:100BE300808000000000001F2020000080800000A3
:100BF30000808000001F202020103F208080800084
:100C03000080808000010E30080601008080008093
:100C1300008080800F300C030C300F0000808000B8
:100C2300808080000020312E0E31200080808000E3
:100C33000080808080818E70180601000080808093
:100C4300808080000021302C222130000000000031
:100C5300807C020200000000003F404000000000D2
:100C6300FF00000000000000FF0000000002027C03
:100C7300800000000040403F00000000000601012A
:100C83000202040400000000000000000000000055
:100C93000000000000000000000000000000000051
:100CA3000000000000000000000000000000000041
:100CB3000000000000F0F0F0000000000000000061
:100CC30000017F010000000000000000001C1C1C4C
:100CD3000000000000008060301C8C60301C0C00A1
:100CE3000000000000000000000000000000000001
:100CF3000000000000000000000000E00000000011
:100D030000E000000086E69F86868686E69F8600D2
:100D130000011F01010101011F010100000080C04A
:100D23006020F820E0C00000000003070C18FF70EB
:100D3300E18100000000070F10107F100F07000073
:100D43008060206080000000E02000000F30203031
:100D53009F70DC371030C0000000100E030007182E
:100D6300101807000000C02020E0C00000000000B1
:100D730080E01F38E88703C43C040000070F181005
:100D8300100B070D1010080000808C4C3800000079
:100D93000000000000000000000000000000000050
:100DA3000000000000000000000000000000000040
:100DB300000080E0300804000000000000FEFF0196
:100DC30000000000000000000000030F1820400096
:100DD30000040830E0800000000000000000000074
:100DE30001FFFE0000000000004020180F03000078
:100DF30000000000000000000000C0000000000030
:100E0300004266663C18FF183C666642000000001C
:100E1300000003000000000000000000000080004C
:100E230000000000001010101010FF101010101020
:100E330000000000000003000000000000000000AC
:100E4300000000000000000000000000000000009F
:100E53000000000000808C4C3800000000000000FF
:100E6300000000000000000000000000001010104F
:100E730010101010101010000000000000000000FF
:100E8300000000000000000000000000000000005F
:100E930000000000000000000000000000001C1C17
:100EA3001C00000000000000000000000000000023
:100EB300E0380C000000000080701C0300000000FC
:100EC3000060380E0100000000000000000080C038
:100ED30060202060C080000000FEFF0100000000D1
:100EE30001FFFE000001070E181010180E07010085
:100EF3000000808080C0E0000000000000000000CF
:100F030000FFFF000000000000001010101F1F1062
:100F1300101000000080402020202060C0800000CE
:100F230000030300804020381F070000001C1A192B
:100F330018181818181F00000080C020202060C057
:100F430080000000000303001010182FE78000004A
:100F530000070F10101010180F070000000000000A
:100F63000000C0E0F000000000C0B088868180FF70
:100F7300FF808000000000000010101F1F101000F1
:100F83000000E060606060606060000000003F108F
:100F930008080818F0E0000000070B101010101CE0
:100FA3000F030000000080C040202020E0C00000AC
:100FB30000FCFF211008080818F0E0000001070CEE
:100FC30018101010080F03000000C0E0606060609C
:100FD30060E06000000003000000E018070000006C
:100FE30000000000001F1F00000000000080C06020
:100FF3002020202060C080000087EF2C181830309C
:1010030068CF830000070F0810101010180F070097
:101013000000C0C020202020C0800000001F3F60CF
:101023004040402010FFFE0000000C1C1010100870
:101033000F0300000000000000000000000000009B
:1010430000000000000E0E0E000000000000000073
:10105300001C1C1C00000000000000000000000039
:101063000000000000000000000C0C000000000065
:1010730000000000005838000000000000000000DD
:10108300000000804020100000001028448201006E
:10109300000000000000000000000102040810002E
:1010A30000000000000000000000000000848484B1
:1010B3008484848484848400000000000000000091
:1010C300000000000000102040800000000000002D
:1010D30000000000000001824428100000001008F6
:1010E300040201000000000000C0202010101010B6
:1010F30030E0C0000003030000F010080C070300F9
:10110300000000001C1C1C0000000000000000C0C8
:10111300406020202040C00000FCFF01F00E03C10E
:10112300FE03807F0001070E08111110110904024C
:101133000000000080E0E000000000000000807C70
:101143004340477FF880000010181F100000000084
:10115300131F1C1020E0E02020202060C08000002E
:1011630000FFFF10101010182FE78000101F1F1032
:1011730010101010180F0700000080C0402020201E
:101183002060E00000FCFF010000000000000100FF
:101193000001070E181010100804030020E0E020DF
:1011A30020202040C080000000FFFF00000000005E
:1011B30001FFFE00101F1F10101018080E0701007A
:1011C30020E0E020202020202060800000FFFF108E
:1011D3001010107C00000000101F1F1010101010C2
:1011E3001018060020E0E02020202020606080000E
:1011F30000FFFF101010107C00000100101F1F10D3
:101203000000000000000000000080C060202020DB
:1012130040E0000000FCFF0100004040C0C140402E
:101223000001070E181010100F0F000020E0E0203F
:101233000000000020E0E02000FFFF10101010105D
:1012430010FFFF00101F1F1000000000101F1F10D1
:101253000000202020E0E02020200000000000000B
:1012630000FFFF000000000000001010101F1F10FF
:101273001010000000000000202020E0E0202020CB
:1012830000000000000000FFFF0000000060E0809D
:101293008080C07F3F00000020E0E020000020A00D
:1012A3006020200000FFFF30187CE3C00000000036
:1012B300101F1F10000001131F1C181020E0E02056
:1012C300000000000000000000FFFF00000000001D
:1012D30000000000101F1F1010101010101806003F
:1012E30020E0E0E000000000E0E0E02000FF013F3C
:1012F300FEC0E01E01FFFF00101F1000031F0300CC
:10130300101F1F1020E0E0C0000000000020E020BC
:1013130000FF0003071C78E08000FF00101F10008F
:1013230000000000030F1F00000080C06020206049
:10133300C080000000FEFF010000000000FFFE006F
:101343000001070E181010180C07010020E0E02020
:101353002020202060C0800000FFFF2020202020CC
:10136300301F0F00101F1F100000000000000000BE
:10137300000080C060202060C080000000FEFF01EC
:101383000000000000FFFE000001070E1111133CD6
:101393007C67210020E0E0202020202060C0800026
:1013A30000FFFF101030F0D0080F0700101F1F10B0
:1013B300000000030F1C10100080C06020202020BC
:1013C3004040E00000070F0C1818303060E0810047
:1013D300001F0C0810101010180F07008060202049
:1013E30020E0E020202060800100000000FFFF00DB
:1013F3000000000100000000101F1F10000000008B
:1014030020E0E020000000000020E02000FFFF00BB
:10141300000000000000FF0000070F18101010105C
:10142300100807002060E0E02000000020E06020BA
:101433000000077FF88000807C03000000000000AC
:10144300071F1C070000000020E0E02000E0E02070
:101453000020E0200007FFF8E01FFFFCE01F000072
:101463000000031F0300011F03000000002060E0D1
:10147300A0000020E0602000000000038F7CF8C67D
:10148300010000000010181E130001171F181000A0
:101493002060E0E02000000020E060200000010761
:1014A3003EF8E0180700000000000010101F1F1096
:1014B3001000000000806020202020A0E0E0200039
:1014C30000000000C0F03E0F0300000000101C1FCE
:1014D30017101010101806000000000000FC040490
:1014E300040404000000000000FF000000000000EE
:1014F30000000000007F404040404000000010E03A
:10150300000000000000000000000000031C6080D9
:101513000000000000000000000000030C708000C9
:1015230000000404040404FC0000000000000000A8
:10153300000000FF00000000000040404040407FEA
:101543000000000000000010080C040C081000004C
:101553000000000000000000000000000000000088
:101563000000000000000000000000000000000078
:101573000000000000000000000000000000000068
:101583008080808080808080808080800000000454
:101593000408080000000000000000000000000034
:1015A3000000000000000000000000000000000038
:1015B300000000000000000000000000000098D8B8
:1015C30044642424FCF80000000F1F1810101008B6
:1015D3001F1F10180020E0F00000000000000000B2
:1015E3000000FFFF180804040CF8F00000001F0FB0
:1015F30018101010180F0300000000000000000076
:101603000000000000E0F8180404043C3800000067
:1016130000030F0C1010101008060000000000005B
:1016230000000020E0F0000000E0F81C04040408BF
:10163300FFFF000000030F18101010081F0F080011
:101643000000000000000000000000000000E0F8BF
:10165300484444444C7870000000030F0C181010E9
:10166300100804000000000080C0602020E0C000DB
:1016730000040404FFFF040404040000000010102D
:101683001F1F1010100000000000000000000000E9
:1016930000000000000070F88C04048CF874040C43
:1016A300007076CF8D8D8D89C87870000020E0F0B2
:1016B30000000000000000000000FFFF0804040415
:1016C300FCF8000000101F1F100000101F1F100067
:1016D300000000000060600000000000000004043F
:1016E30004FCFC000000000000001010101F1F107D
:1016F3001010000000000000000000606000000007
:1017030000000000040404FCFC0000000000C0C052
:101713008080C07F3F0000000020E0F00000000058
:10172300000000000000FFFF80C0F41C0404000060
:1017330000101F1F1100031F1C10100000002020A9
:1017430020E0F000000000000000000000FFFF00A8
:101753000000000000001010101F1F1010100000E8
:1017630000000000000000000000000004FCFC0872
:1017730004FCFC0804FCFC00101F1F10001F1F10BA
:10178300001F1F1000000000000000000000000008
:101793000004FCFC08080404FCF8000000101F1FF0
:1017A300100000101F1F10000000000000000000C8
:1017B3000000000000E0F0180C04040C18F0E00036
:1017C30000030F0C101010100C0F0300000000009A
:1017D30000000000000000000004FCFC08040404F6
:1017E3000CF8F0000080FFFF889010101C0F03001E
:1017F30000000000000000000000000000E0F81CF2
:1018030004040408F8FC000000030F18101090886B
:10181300FFFF800000000000000000000000000047
:10182300040404FCFC100804040C0C001010101F2A
:101833001F10101000000000000000000000000056
:101843000000000000003078CCC48484840C1C00A9
:1018530000001E1810101011190F060000000000E0
:1018630000C000000000000000040404FFFF0404A3
:1018730004000000000000000F1F1010100C0000F7
:101883000000000000000000000000000004FCFE57
:1018930000000004FCFE000000000F1F18101008D9
:1018A3001F0F0800000000000000000000000000FF
:1018B30000040C3CFCC40000C43C0C040000000009
:1018C300010F1E0E010000000000000000000000D8
:1018D30000000000043CFCC400E47CFC84807C0425
:1018E3000000071F070000071F070000000000009B
:1018F30000000000000000000004041C7CE4C0346D
:101903001C0404000010101C1601131F1C181000E7
:1019130000000000000000000000000000040C3C78
:10192300FCC400C43C0404000000C080C1370E01A5
:1019330000000000000000000000000000000000A4
:1019430000001C0404C4F47C1C0400000000101CF0
:101953001F17111010180E0000000000000000F8FF
:101963000C04000000000000001028EF000000003D
:10197300000000000000003F604000000000000085
:101983000000FF0000000000000000000000FF0056
:1019930000000000000000000000FF000000000045
:1019A3000000040CF800000000000000000000002C
:1019B300EF28100000000000000040603F0000001E
:1019C300000000000018060202040810202030085E
:1019D3000000000000000000000000000000000004
:1019E3000000000000000000E6B3A2001060020C3B
:1019F300C000F8888888FF8888A8180004047C033E
:101A030080601F80432C102846818000E789B9003D
:101A1300403C10FF1010404848487F48C8484000E9
:101A2300020602FF010100020A1242827F02020043
:101A3300E5BE8B00001088C43310545454FF545433
:101A43007C101000020100FF0010121212FF12128C
:101A530012100000E58AA8004044C44444444010E6
:101A630010FF101010F00000103C131014B8403099
:101A73000E014080403F0000000000008080808015
:101A830080808080868F9FBFFFFCF8F8E0E0C080F5
:101A930080808080C0E0E0F8F8FCFEBF9F8F8680E6
:101AA3008080808080800000000000F8FEFFFFFF40
:101AB300FF1F1F1F1F1F1F1F1F1F1F1F1F1F1F1F53
:101AC3001F1F1F1F1F1F1F1F1F1F1F1F1F1F1F1F23
:101AD3001F1F1F1F1F1F1F1FFFFFFFFEFCF8FFFF1E
:101AE300FFFFFFFF000000E0E0F0F0F0F0F8F8F88F
:101AF300F8F8F800000000000000000000F8F8F813
:101B0300F8F8F8F0F0F0F0E0200000FFFFFFFFFF2F
:101B1300FFFFFFFFFFFFFF000000000301010101C2
:101B230000000000008080000080C0C080000080B2
:101B33008000000000000101010303000000FFFF1B
:101B4300FFFFFFFFFFFFFFFFFFFF0000000000009C
:101B5300000000000000000107070707070307074D
:101B63000707070301000000000000000000000059
:101B730000FFFFFFFFFFFF0107071F1F1F1F1F1F9F
:101B83001FFFFFFFFFFFFF1F1F1F1F1F1F1F1F1F22
:101B93001F1F1F1F1F1F1F1F1F1F7FFFFFFFFFFF92
:101BA3007F1F1F1F1F1F1F0707030806FF00030CCC
:101BB30006FF022B1008FF069F180CFF0C8F101056
:0C1BC300FF19EB04FF1BB73330FF1A7B47
:101BCF00021E77E86480F8E933E83360110460F0AF
:101BDF00ED33EC337009E8FCE9FDEAFEEBFF22047C
:101BEF0060DED3EB9FEA9EE99DE8C2E78CF0C2F777
:101BFF0095F0400CE8CCF8E9CDF9EACEFAEBCFFB43
:101C0F00121E4285D0F05804700320D5B3E804703B
:101C1F00075002B2D5021E8192D5EC0460F7E4CCD6
:101C2F00C0E0C398F8603B94186008400DD0E0FB0B
:101C3F00021E59E4FBFAC9FC8028E830E406E4C927
:101C4F00FBE4CAFCE830E305E4C9CACBFCE854075F
:101C5F006010F8C3E913F9EA13FAEB13FBEC13FC6A
:101C6F00D8F130F52FC3E49CFCEF9BFFEE9AFEED0D
:101C7F0099FDD0E0FBEF4E4D4C701222DB03021E9C
:101C8F007EEC2CFCEF33FFEE33FEED33FDED30E752
:101C9F00EB021E59EF2BFFEE3AFEED39FDD0E0FBC4
:101CAF0050130BBB0003021E81ED13FDEE13FEEF6D
:081CBF0013FFEC13FC021E5997
:101CC700EC4D6011E8497017ED33EC3304600DE417
:101CD700FCFFFEFD22E933E8330470F8021E771299
:101CE7001E4258046009E4CC24815006285009029A
:101CF7001E81284003021E7EC0E0EB4A7044B98073
:101D070006D0E0FB021E6DEF4E701CBD8008EBFF96
:101D1700EAFEE9FD80EBE98DF0A4FEE5F0021DB0D7
:101D2700E9CDF9EAFEEBFFEF89F0A4FCE5F0CE89F7
:101D3700F0A42EFFE435F0CD89F0A42DFEE435F0B4
:101D47008067EF4E7005BD80D780C3EF8BF0A4ACE2
:101D5700F0EE8BF0A42CFCE435F0F8EF8AF0A42C1D
:101D6700E5F038FCE433CB8DF0A42CFCE5F03BF830
:101D7700EE8AF0A42CFCE5F038F8E433CF89F0A420
:101D87002CFCE5F038CF3400CE89F0A42FFFE5F026
:101D97003EFEE433C98DF0A42EFEE5F039CD8AF07E
:101DA700A42FFFE5F03EFEE43DFD33D0E0FB5007F6
:101DB7000BBB000F021E81EC2CFCEF33FFEE33FE52
:061DC700ED33FD021E5980
:101DCD0075F020800E75F010800575F0087D007E91
:101DDD00007F003392D530D50312206DEC334010C7
:101DED00EF33FFEE33FEED33FDEC33FCD5F0ED229A
:0E1DFD00E5F0247EA2D513CC92E7CDCEFF22D6
:101E0B00EDD2E7CD33EC3392D524814006E4FFFECF
:101E1B00FDFC22FCE4CFCECDCC24E0501174FF802E
:101E2B00EDC3CC13CCCD13CDCE13CECF13CF0470CB
:071E3B00F030D5DE02206D3E
:101E4200E9D2E7C933E833F892D5EDD2E7CD33ECE6
:071E520033FC5002B2D5225F
:101E5900EC30E7100FBF000C0EBE00080DBD0004EA
:101E69000BEB6014A2D5EB13FCED92E7FD2274FF96
:101E7900FCFDFEFF22E480F8A2D574FF13FC7D80EF
:031E8900E480EF03
:103579000234DFE493A3F8E493A34003F68001F255
:1035890008DFF48029E493A3F85407240CC8C33353
:10359900C4540F4420C8834004F456800146F6DF22
:1035A900E4800B0102040810204080903ABDE47EBB
:1035B900019360BCA3FF543F30E509541FFEE49317
:1035C900A360010ECF54C025E060A840B8E493A3DE
:1035D900FAE493A3F8E493A3C8C582C8CAC583CA09
:1035E900F0A3C8C582C8CAC583CADFE9DEE780BEC1
:013AC60000FF
:101E8C00E709F608DFFA8046E709F208DFFA803E38
:101E9C0088828C83E709F0A3DFFA8032E309F60825
:101EAC00DFFA8078E309F208DFFA807088828C838D
:101EBC00E309F0A3DFFA806489828A83E0A3F60841
:101ECC00DFFA805889828A83E0A3F208DFFA804C1B
:101EDC0080D280FA80C680D4806980F280338010F2
:101EEC0080A680EA809A80A880DA80E280CA80335B
:101EFC0089828A83ECFAE493A3C8C582C8CCC583D3
:101F0C00CCF0A3C8C582C8CCC583CCDFE9DEE780A2
:101F1C000D89828A83E493A3F608DFF9ECFAA9F021
:101F2C00EDFB2289828A83ECFAE0A3C8C582C8CC77
:101F3C00C583CCF0A3C8C582C8CCC583CCDFEADE90
:101F4C00E880DB89828A83E493A3F208DFF980CCF2
:101F5C0088F0EF60010E4E60C388F0ED2402B404EB
:101F6C000050B9F582EB2402B4040050AF23234592
:061F7C008223901EDC73BD
:101F8200BB010689828A83E0225002E722BBFE025D
:091F9200E32289828A83E4932290
:101F9B00BB010CE58229F582E5833AF583E02250FB
:101FAB0006E92582F8E622BBFE06E92582F8E22245
:0D1FBB00E58229F582E5833AF583E493225F
:101FC800BB010689828A83F0225002F722BBFE01F8
:021FD800F322F2
:101FDA00EF8DF0A4A8F0CF8CF0A428CE8DF0A42E1B
:021FEA00FE22D5
:101FEC00BC000BBE0029EF8DF084FFADF022E4CCD9
:101FFC00F875F008EF2FFFEE33FEEC33FCEE9DECA2
:10200C00984005FCEE9DFE0FD5F0E9E4CEFD22EDE7
:10201C00F8F5F0EE8420D21CFEADF075F008EF2F31
:10202C00FFED33FD4007985006D5F0F222C398FD22
:05203C000FD5F0EA22BF
:10204100C5F0F8A3E028F0C5F0F8E582158270022A
:062051001583E038F022C7
:10205700A3F8E0C5F025F0F0E5821582700215833C
:06206700E0C838F0E82299
:0E206D00C3E49FFFE49EFEE49DFDE49CFC2284
:10207B00BB010DE58229F582E5833AF58302228ABD
:10208B005007E92582F8022281BBFE07E92582F879
:10209B00022293E58229F582E5833AF58302229C9D
:0C3A9D00EE30E707C3E49FFFE49EFE222A
:1020AB00E3F5F009E208B5F06BDFF58067E3F5F0D7
:1020BB0009E608B5F05EDFF5805A87F009E608B54A
:1020CB00F052DFF6804E87F009E208B5F046DFF6F6
:1020DB00804288828C8387F009E0A3B5F036DFF667
:1020EB00803288828C8387F009E493A3B5F025DFD7
:1020FB00F5802188828C83E3F5F009E0A3B5F01419
:10210B00DFF5801088828C83E3F5F009E493A3B5A7
:10211B00F002DFF40221DA808780E9809080D4809E
:10212B003E8015806E807E809D80B7808D80A380E1
:10213B00518074803C0221E689828A83ECFAE49315
:10214B00F5F0A3C8C582C8CCC583CCE493A3C8C59E
:10215B0082C8CCC583CCB5F076DFE3DEE180708935
:10216B00828A83E493F5F0A3E208B5F062DFF48092
:10217B005E89828A83E0F5F0A3E608B5F051DFF5BE
:10218B00804D89828A83E0F5F0A3E208B5F040DF49
:10219B00F5803C89828A83E493F5F0A3E608B5F0D9
:1021AB002EDFF4802A8002805789828A83ECFAE43E
:1021BB0093F5F0A3C8C582C8CCC583CCE0A3C8C532
:1021CB0082C8CCC583CCB5F006DFE4DEE280007FAD
:1021DB00FFB5F0020F2240027F012289828A83EC35
:1021EB00FAE0F5F0A3C8C582C8CCC583CCE0A3C880
:1021FB00C582C8CCC583CCB5F0D5DFE5DEE380CF97
:10220B0089828A83ECFAE0F5F0A3C8C582C8CCC5F5
:10221B0083CCE493A3C8C582C8CCC583CCB5F0AF3F
:10222B00DFE4DEE280A988F0EF60010E4E60ABEDDB
:10223B002402B404005098F582EB2402B40400503D
:0A224B008E23234582239021227385
:10225500EF4E6012EF60010EEDBB010B89828A83A0
:10226500F0A3DFFCDEFA2289F05007F709DFFCA9AD
:0C227500F022BBFEFCF309DFFCA9F02204
:09228100E6FB08E6FA08E6F92282
:09228A00E0FBA3E0FAA3E0F92255
:09229300E2FB08E2FA08E2F9227C
:0C229C00E493FB740193FA740293F9229E
:00000001FF
